:100000000C9463000C9401090C942E090C948B0041
:100010000C948B000C948B000C948B000C94F20DC0
:100020000C948B000C948B000C948B000C948B0024
:100030000C948B000C948B000C948B000C948B0014
:100040000C947D090C948B000C94AE0A0C948B00DC
:100050000C948B000C948B000C948B000C948B00F4
:100060000C948B000C948B000000000024002700EF
:100070002A0000000000250028002B0000000000DE
:1000800023002600290004040404040404040202DA
:100090000202020203030303030301020408102007
:1000A0004080010204081020010204081020000012
:1000B0000007000201000003040600000000000029
:1000C00000000200AA0B11241FBECFEFD8E0DEBF54
:1000D000CDBF12E0A0E0B1E0E4E9FDE102C005908F
:1000E0000D92A035B107D9F713E0A0E5B2E001C049
:1000F0001D92AF30B107E1F710E0C6ECD0E004C0CC
:100100002297FE010E94C40EC43CD107C9F70E9489
:10011000E40B0C94C80E0C940000EF92FF920F9326
:100120001F937B018C0120E030E040E05FE40E94FF
:10013000390488238CF0C801B70120E030E040E0AA
:100140005FE40E9405020E94F7049B01AC0120506D
:1001500030404040504806C0C801B7010E94F70433
:100160009B01AC01B901CA011F910F91FF90EF9063
:100170000895A0E0B0E0EFEBF0E00C948B0EDC0112
:100180002B01FA019C91923008F439C1EB0188816E
:10019000823008F433C1943069F4843009F02FC1FF
:1001A00011969C9111978981981709F428C1ACE2A6
:1001B000B1E025C1843009F421C18230A9F4923024
:1001C00009F01DC19A01AD0188E0EA010990AE0174
:1001D000E90109929E018150C1F7E20189811196DE
:1001E0009C918923818308C1923009F407C112963A
:1001F0002D903C901397EB018A819B811496AD90D2
:10020000BD90CD90DC901797EC80FD800E811F8112
:100210009101281B390BB90137FF04C066277727E6
:10022000621B730B603271050CF061C0121613066D
:100230006CF537014801062E04C096948794779494
:1002400067940A94D2F721E030E040E050E004C027
:10025000220F331F441F551F6A95D2F7215030409B
:10026000404050402E213F2140235123211531058C
:100270004105510521F021E030E040E050E07901F6
:100280008A01E628F728082919293CC0232BD1F137
:10029000260E371E35014601062E04C0969487941B
:1002A000779467940A94D2F721E030E040E050E080
:1002B00004C0220F331F441F551F6A95D2F72150E7
:1002C0003040404050402A213B214C215D212115E6
:1002D00031054105510521F021E030E040E050E0DA
:1002E00059016A01A628B728C828D9280BC0821549
:1002F00093052CF01C01AA24BB24650103C0EE2445
:10030000FF24870111969C91D20111968C91981728
:1003100009F445C0992339F0A80197012A193B092E
:100320004C095D0906C0A60195012E193F09400B35
:10033000510B57FD08C011823382228224833583FA
:10034000468357831DC081E08183338222828827C0
:100350009927DC01821B930BA40BB50B8483958337
:10036000A683B7830DC0220F331F441F551F24835C
:100370003583468357838281938101979383828358
:100380002481358146815781DA01C9010197A1098C
:10039000B1098F5F9F4FAF4FBF4328F30BC09183CD
:1003A00033822282EA0CFB1C0C1D1D1DE482F582A7
:1003B0000683178383E080832481358146815781BA
:1003C00057FF1AC0C901AA2797FDA095BA2F8170BF
:1003D0009070A070B0705695479537952795822BF1
:1003E000932BA42BB52B84839583A683B78382811B
:1003F0009381019693838283DF0101C0D201CD01F5
:10040000CDB7DEB7E2E10C94A70EA0E2B0E0EBE0DE
:10041000F2E00C94970E69837A838B839C832D83FF
:100420003E834F835887E9E0EE2EF12CEC0EFD1E43
:10043000CE010196B7010E94E8068E010F5E1F4FA4
:10044000CE010596B8010E94E8068A8991E08927C5
:100450008A8BC701B801AE01475E5F4F0E94B900A9
:100460000E941306A096E6E00C94B30EA0E2B0E062
:10047000ECE3F2E00C94970E69837A838B839C8380
:100480002D833E834F835887F9E0EF2EF12CEC0E3D
:10049000FD1ECE010196B7010E94E8068E010F5E97
:1004A0001F4FCE010596B8010E94E806C701B801AA
:1004B000AE01475E5F4F0E94B9000E941306A096EE
:1004C000E6E00C94B30EA0E2B0E0E9E6F2E00C94B2
:1004D0008B0E69837A838B839C832D833E834F832A
:1004E0005887CE010196BE01675F7F4F0E94E806E4
:1004F000CE010596BE016F5E7F4F0E94E80699858A
:10050000923088F089898230C8F0943019F48230B2
:1005100051F404C0843029F4923081F48CE291E0EB
:10052000C6C0923049F420E09A858A89981321E068
:100530002A87CE010996BBC0823049F420E09A8513
:100540008A89981321E02A8BCE014196B0C02D8470
:100550003E844F8458886D887E888F88988CEE24DE
:10056000FF248701AA24BB24650140E050E060E03D
:1005700070E0E0E0F0E0C10181709070892BE9F05B
:10058000E60CF71C081D191D9A01AB012A0D3B1D35
:100590004C1D5D1D80E090E0A0E0B0E0E614F704A3
:1005A0000805190520F481E090E0A0E0B0E0BA0170
:1005B000A901480F591F6A1F7B1FAA0CBB1CCC1C2A
:1005C000DD1C97FE08C081E090E0A0E0B0E0A82A22
:1005D000B92ACA2ADB2A3196E032F10549F0660CC5
:1005E000771C881C991C5694479437942794C3CF42
:1005F000FA85EA892B893C898B859C85280F391FD0
:100600002E5F3F4F17C0CA0181709070892B61F037
:1006100016950795F794E79480E090E0A0E0B0E8A5
:10062000E82AF92A0A2B1B2B76956795579547954B
:100630002F5F3F4F77FDE7CF0CC0440F551F661F5C
:10064000771F17FD4160EE0CFF1C001F111F21508A
:100650003040403090E0590790E0690790E4790716
:1006600060F32B8F3C8FDB01CA018F779070A070F5
:10067000B07080349105A105B10561F447FD0AC051
:10068000E114F1040105110529F0405C5F4F6F4F43
:100690007F4F40781A8EFE1711F081E08A8F4D8FC0
:1006A0005E8F6F8F78A383E0898FCE0149960E9479
:1006B0001306A096E2E10C94A70EA8E1B0E0E3E6F1
:1006C000F3E00C94930E69837A838B839C832D8350
:1006D0003E834F835887B9E0EB2EF12CEC0EFD1EC4
:1006E000CE010196B7010E94E8068E010F5E1F4FF2
:1006F000CE010596B8010E94E8062985223008F44B
:100700007EC03989323010F4B8017CC08A859A895C
:1007100089278A87243011F0223031F4231709F019
:100720006EC06CE271E06EC0343039F41D861E86F6
:100730001F86188A1C861B8604C0323021F484E090
:100740008987B7015FC02B853C858B899C89281BD5
:10075000390B3C872B87ED84FE840F851889AD8883
:10076000BE88CF88D88CEA14FB040C051D0540F424
:10077000EE0CFF1C001F111F215030403C872B87BF
:1007800020E030E040E050E080E090E0A0E0B0E425
:1007900060E070E0EA14FB040C051D0540F0282B16
:1007A000392B4A2B5B2BEA18FB080C091D09B6955F
:1007B000A79597958795EE0CFF1C001F111F6F5F83
:1007C0007F4F6F31710531F7DA01C9018F77907072
:1007D000A070B07080349105A105B10561F427FDCA
:1007E0000AC0E114F1040105110529F0205C3F4F16
:1007F0004F4F5F4F20782D873E874F87588BBE0124
:10080000675F7F4FCB010E9413066896EAE00C9465
:10081000AF0EA8E1B0E0EFE0F4E00C94970E69832E
:100820007A838B839C832D833E834F83588789E013
:10083000E82EF12CEC0EFD1ECE010196B7010E94B0
:10084000E8068E010F5E1F4FCE010596B8010E948B
:10085000E8068985823040F08989823028F0C70116
:10086000B8010E94600701C08FEF6896E6E00C9423
:10087000B30EA8E1B0E0EFE3F4E00C94970E6983C7
:100880007A838B839C832D833E834F83588789E0B3
:10089000E82EF12CEC0EFD1ECE010196B7010E9450
:1008A000E8068E010F5E1F4FCE010596B8010E942B
:1008B000E8068985823040F08989823028F0C701B6
:1008C000B8010E94600701C08FEF6896E6E00C94C3
:1008D000B30EA8E1B0E0EFE6F4E00C94970E698364
:1008E0007A838B839C832D833E834F83588789E053
:1008F000E82EF12CEC0EFD1ECE010196B7010E94F0
:10090000E8068E010F5E1F4FCE010596B8010E94CA
:10091000E8068985823040F08989823028F0C70155
:10092000B8010E94600701C081E06896E6E00C947F
:10093000B30EA8E0B0E0EFE9F4E00C94940E9B0154
:10094000AC0183E08983DA01C9018827B7FD83956B
:100950009927AA27BB27B82E211531054105510536
:1009600019F482E089833AC08823A9F0203080E01E
:10097000380780E0480780E8580729F460E070E015
:1009800080E09FEC30C0EE24FF248701E21AF30AD6
:10099000040B150B02C079018A018EE1C82ED12CFF
:1009A000DC82CB82ED82FE820F831887C801B701FB
:1009B0000E94C40501971816190684F4082E04C075
:1009C000EE0CFF1C001F111F0A94D2F7ED82FE826D
:1009D0000F831887C81AD90ADC82CB82BA82CE016B
:1009E00001960E9413062896E9E00C94B00EACE044
:1009F000B0E0EDEFF4E00C949B0E69837A838B8377
:100A00009C83CE010196BE016B5F7F4F0E94E8067A
:100A10008D81823061F1823050F1843021F48E81F9
:100A2000882351F12EC02F81388537FD20C06E817B
:100A30002F3131051CF06623F9F023C08EE190E0E0
:100A4000821B930B29853A854B855C8504C056959E
:100A50004795379527958A95D2F76623B1F050953B
:100A60004095309521953F4F4F4F5F4F0EC020E08E
:100A700030E040E050E009C02FEF3FEF4FEF5FE77D
:100A800004C020E030E040E050E8B901CA012C96F3
:100A9000E2E00C94B70EA8E0B0E0E1E5F5E00C94DC
:100AA000930E7B018C01611571058105910519F487
:100AB00082E0898360C083E089838EE1C82ED12CD7
:100AC000DC82CB82ED82FE820F831887C801B701DA
:100AD0000E94C405FC013197F7FF3BC02227332752
:100AE0002E1B3F0B57016801022E04C0D694C794F9
:100AF000B794A7940A94D2F740E050E060E070E029
:100B000081E090E0A0E0B0E004C0880F991FAA1F28
:100B1000BB1F2A95D2F70197A109B1098E219F2108
:100B2000A023B1230097A105B10521F041E050E0D9
:100B300060E070E04A295B296C297D294D835E8342
:100B40006F8378878EE190E08E1B9F0B9C838B8355
:100B500012C0309781F00E2E04C0EE0CFF1C001F57
:100B6000111F0A94D2F7ED82FE820F831887CE1AE6
:100B7000DF0ADC82CB821A82CE0101960E94130624
:100B80002896EAE00C94AF0EEF92FF920F931F931A
:100B90007B018C0180E0E81680E0F80681E0080720
:100BA00080E0180788F48FEFE816F10401051105BD
:100BB00031F028F088E090E0A0E0B0E017C080E0DD
:100BC00090E0A0E0B0E012C080E0E81680E0F80617
:100BD00080E0080781E0180728F088E190E0A0E0B5
:100BE000B0E004C080E190E0A0E0B0E020E230E0BE
:100BF00040E050E0281B390B4A0B5B0B04C01695F4
:100C00000795F794E7948A95D2F7F701EC5CFE4FCD
:100C10008081281B310941095109C9011F910F9198
:100C2000FF90EF900895DF92EF92FF920F931F9342
:100C3000FC01E480F58006811781D18080818230BB
:100C400048F480E090E0A0E1B0E0E82AF92A0A2B1D
:100C50001B2BA5C0843009F49FC0823021F4EE2400
:100C6000FF24870105C0E114F1040105110519F401
:100C7000E0E0F0E096C0628173819FEF623879070F
:100C80000CF05BC022E83FEF261B370B2A31310501
:100C90002CF020E030E040E050E02AC0B801A7018D
:100CA000022E04C076956795579547950A94D2F71A
:100CB00081E090E0A0E0B0E004C0880F991FAA1F77
:100CC000BB1F2A95D2F70197A109B1098E219F2157
:100CD000A023B1230097A105B10521F081E090E0A8
:100CE000A0E0B0E09A01AB01282B392B4A2B5B2BFB
:100CF000DA01C9018F779070A070B07080349105CF
:100D0000A105B10539F427FF09C0205C3F4F4F4FC3
:100D10005F4F04C0215C3F4F4F4F5F4FE0E0F0E07A
:100D20002030A0E03A07A0E04A07A0E45A0710F0FC
:100D3000E1E0F0E079018A0127C06038710564F5CF
:100D4000FB01E158FF4FD801C7018F779070A07069
:100D5000B07080349105A105B10539F4E7FE0DC0EE
:100D600080E490E0A0E0B0E004C08FE390E0A0E079
:100D7000B0E0E80EF91E0A1F1B1F17FF05C01695ED
:100D80000795F794E794319687E016950795F794C1
:100D9000E7948A95D1F705C0EE24FF248701EFEF91
:100DA000F0E06E2F679566276795902F9F77D79411
:100DB000DD24D7948E2F8695492F462B582F5D29F9
:100DC000B701CA011F910F91FF90EF90DF90089536
:100DD000FC01DB01408151812281622F6F7770E03D
:100DE000221F2227221F9381892F880F822B282FD1
:100DF00030E0991F9927991F11969C9311972115FF
:100E00003105A9F5411551056105710511F482E01F
:100E100037C082E89FEF13969C938E9312979A01A6
:100E2000AB0167E0220F331F441F551F6A95D1F7AE
:100E300083E08C930DC0220F331F441F551F129661
:100E40008D919C911397019713969C938E93129773
:100E5000203080E0380780E0480780E4580758F3E6
:100E600014962D933D934D935C93179708952F3FC0
:100E7000310579F4411551056105710519F484E0D6
:100E80008C93089564FF03C081E08C9312C01C9280
:100E900010C02F57304013963C932E93129783E047
:100EA0008C9387E0440F551F661F771F8A95D1F7F3
:100EB000706414964D935D936D937C93179708958A
:100EC0001F93DC01FB019C91923008F447C08081A4
:100ED000823008F443C0943051F411961C91843050
:100EE00099F58181682F70E0611B71093FC08430E2
:100EF00021F0923031F48230B9F18181882389F177
:100F00002DC011961C9111978230F1F08181181734
:100F1000D9F412962D913C91139782819381821777
:100F2000930794F028173907BCF014968D919D9182
:100F30000D90BC91A02D24813581468157812817C1
:100F400039074A075B0718F4112341F00AC08217DA
:100F50009307A407B50740F4112319F061E070E08E
:100F600005C06FEF7FEF02C060E070E0CB011F9122
:100F70000895EF92FF920F931F93CF93DF931092F8
:100F800063021092620277C0809150020E945B0956
:100F9000CC0FDD1FCC0FDD1FCA5ADD4FAA2797FDEE
:100FA000A095BA2FBC01CD010E94990420E030E049
:100FB00040EA50E40E94630220E030E048EC52E452
:100FC0000E94630220E030E040E85AE30E9463029E
:100FD000688379838A839B83E0916202F091630244
:100FE000EE0FFF1FEE0FFF1FEA5AFD4F40815181A8
:100FF0006281738185EF92E022E030E00E94B70DBC
:101000008091620290916302029731F085EF92E045
:1010100060E071E00E94220CE0916202F0916302B4
:10102000EE0FFF1FEE0FFF1FEA5AFD4F60915202B5
:101030007091530280915402909155022081318128
:10104000428153810E943602609352027093530290
:10105000809354029093550264EF71E080E090E039
:101060000E94EB0980916202909163020196909335
:10107000630280936202C0916202D0916302C33026
:10108000D1050CF481CF609152027091530280918E
:1010900054029091550220E030E040E450E40E9478
:1010A0005D037B018C016093520270935302809325
:1010B00054029093550220913402309135024091B0
:1010C0003602509137020E940904181644F4E09247
:1010D0003402F09235020093360210933702C801B1
:1010E000B701209138023091390240913A02509173
:1010F0003B020E946904882344F4E0923802F09293
:10110000390200933A0210933B0285EF92E062E0CD
:1011100071E00E94220C4091520250915302609162
:1011200054027091550285EF92E022E030E00E9477
:10113000B70D85EF92E06EE071E00E94220C85EF22
:1011400092E069E171E00E94220C409134025091DA
:101150003502609136027091370285EF92E022E00D
:1011600030E00E94B70D85EF92E060E271E00E94EE
:10117000220C409138025091390260913A027091EC
:101180003B0285EF92E022E030E00E94B70D85EF50
:1011900092E067E271E00E94220C85EF92E069E242
:1011A00071E00E94200D80E090E0A0E0B0E080932C
:1011B000520290935302A0935402B093550268EEEA
:1011C00073E080E090E00E94EB09DF91CF911F91E6
:1011D0000F91FF90EF90089585EF92E040E855E27F
:1011E00060E070E00E94DF0A80E090E0A0E0B0E004
:1011F0008093520290935302A0935402B0935502ED
:1012000008951F920F920FB60F9211242F933F93C0
:101210004F935F936F937F938F939F93AF93BF93FE
:10122000EF93FF938091640290916502892B29F0DE
:10123000E0916402F09165020995FF91EF91BF91F1
:10124000AF919F918F917F916F915F914F913F915E
:101250002F910F900FBE0F901F9018951F920F9215
:101260000FB60F9211242F933F934F935F936F9379
:101270007F938F939F93AF93BF93EF93FF9380914F
:10128000660290916702892B29F0E0916602F09145
:1012900067020995FF91EF91BF91AF919F918F9157
:1012A0007F916F915F914F913F912F910F900FBE62
:1012B0000F901F901895982F8E3008F09E509770C1
:1012C00080913C028295880F880F807C892B8093C7
:1012D0007C0080917A00806480937A0080917A000B
:1012E00086FDFCCF2091780040917900942F80E01A
:1012F00030E0282B392BC90108951F920F920FB6A9
:101300000F9211242F933F938F939F93AF93BF938B
:1013100080916C0290916D02A0916E02B0916F026B
:10132000309170020196A11DB11D232F2D5F2D3725
:1013300020F02D570196A11DB11D209370028093BE
:101340006C0290936D02A0936E02B0936F02809135
:10135000680290916902A0916A02B0916B020196B5
:10136000A11DB11D8093680290936902A0936A0247
:10137000B0936B02BF91AF919F918F913F912F914D
:101380000F900FBE0F901F9018959FB7F894209163
:1013900068023091690240916A0250916B0286B5F1
:1013A000A89B06C08F3F21F02F5F3F4F4F4F5F4FED
:1013B0009FBF542F432F322F2227280F311D411D4D
:1013C000511D82E0220F331F441F551F8A95D1F70C
:1013D000B901CA010895EF92FF920F931F93CF9323
:1013E000DF937B018C010E94C509EB010EC00E94B6
:1013F000C5096C1B7D0B685E7340C8F30894E10857
:10140000F10801091109C851DC4FE114F10401058B
:10141000110569F7DF91CF911F910F91FF90EF9028
:101420000895789484B5826084BD84B5816084BD5C
:1014300085B5826085BD85B5816085BDEEE6F0E04D
:10144000808181608083E1E8F0E0108280818260A9
:101450008083808181608083E0E8F0E0808181602A
:101460008083E1EBF0E0808184608083E0EBF0E05A
:10147000808181608083EAE7F0E0808184608083FE
:1014800080818260808380818160808380818068A8
:1014900080831092C1000895833071F0843028F465
:1014A0008130A1F0823021F514C08630B1F0873050
:1014B000D1F08430E9F404C0809180008F7703C0BC
:1014C000809180008F7D80938000089584B58F7710
:1014D00002C084B58F7D84BD08958091B0008F7760
:1014E0008093B00008958091B0008F7D8093B0000C
:1014F0000895FF920F931F93F62E482F50E0CA01D4
:1015000082559F4FFC012491CA0186569F4FFC01D2
:1015100014914A575F4FFA0104910023D9F0222316
:1015200019F0822F0E944C0AE02FF0E0EE0FFF1F0F
:10153000EE58FF4FA591B491FF2031F49FB7F89476
:101540008C911095812304C09FB7F8948C91812BC6
:101550008C939FBF1F910F91FF9008951F920F9240
:101560000FB60F9211242F933F934F938F939F9316
:10157000EF93FF934091C600E091F102F091F202E7
:1015800031969F012F77307031978091F3029091BF
:10159000F4022817390739F0EF58FD4F4083309394
:1015A000F2022093F102FF91EF919F918F914F9161
:1015B0003F912F910F900FBE0F901F901895CF93D2
:1015C000DF93EC019A01AB01E885F985203081EECB
:1015D000380780E0480780E0580709F449C081E0F7
:1015E00090E00A8802C0880F991F0A94E2F780836E
:1015F00060E079E08DE390E00E94700E2150304071
:1016000040405040CA01B90122E030E040E050E0E3
:101610000E94700EEC81FD813083EE81FF8120837A
:10162000EA85FB85208141E050E0CA010E8402C0BA
:10163000880F991F0A94E2F7282B2083EA85FB85FF
:101640002081CA010F8402C0880F991F0A94E2F713
:10165000282B2083EA85FB858081088802C0440FFF
:10166000551F0A94E2F7842B8083DF91CF91089570
:10167000108220E130E0CECFDC011296ED91FC919A
:101680001397E058FF4F2191319180819181281B60
:10169000390B2F773070C9010895DC011296ED9156
:1016A000FC911397EE57FF4F2081318192918291E7
:1016B000E058F0408217930719F42FEF3FEF05C071
:1016C000E20FF31F8081282F30E0C9010895DC016B
:1016D0001296ED91FC911397DF01AE57BF4F2D91FC
:1016E0003C911197E058FF4F80819181E058F04084
:1016F0008217930719F42FEF3FEF0BC0E20FF31F90
:1017000080812F5F3F4F2F7730702D933C93282F90
:1017100030E0C9010895DC011296ED91FC91139718
:10172000EE57FF4F80819181929382930895FC013F
:10173000A085B18521898C9190E0022E02C09595FB
:1017400087950A94E2F780FFF6CF0484F585E02DB3
:101750006083089582E492E09093F6028093F5020C
:1017600081E792E09093F8028093F70285EC90E095
:101770009093FA028093F90284EC90E09093FC023B
:101780008093FB0280EC90E09093FE028093FD0238
:1017900081EC90E0909300038093FF0286EC90E050
:1017A000909302038093010384E08093030383E01A
:1017B0008093040387E08093050385E0809306030C
:1017C00081E08093070308950E94110A0E94EC08AB
:1017D0000E94B907FDCF0F931F93CF93DF938C0126
:1017E000EB0109C02196D801ED91FC910190F081A7
:1017F000E02DC801099568816623A1F7DF91CF919B
:101800001F910F910895EF92FF920F931F93CF9323
:10181000DF938C017B01EA010CC0D7016D917D0142
:10182000D801ED91FC910190F081E02DC80109955E
:101830002197209791F7DF91CF911F910F91FF9002
:10184000EF900895DC01ED91FC910280F381E02D91
:10185000099508952F923F924F925F926F927F92D7
:101860008F929F92AF92BF92CF92DF92EF92FF92B0
:101870000F931F93DF93CF93CDB7DEB7A0970FB62B
:10188000F894DEBF0FBECDBF1C016A017B0141157C
:1018900051056105710549F440E350E060E070E0F6
:1018A00020E030E00E94D30C56C0882499245401D3
:1018B000422E55246624772401E010E00C0F1D1FF2
:1018C000080D191DC701B601A30192010E944E0E19
:1018D000F80160830894811C911CA11CB11CC701F4
:1018E000B601A30192010E944E0EC901DA016C01FA
:1018F0007D01C114D104E104F104F1F681E0E82E88
:10190000F12CEC0EFD1EE80CF91C3E010894611C44
:10191000711CD501C4010197A109B1096C01C81856
:10192000D90816C0F601EE0DFF1D40814A3010F4B3
:10193000405D01C0495C552747FD5095652F752FC7
:10194000C10120E030E00E94D30C0894E108F108C6
:101950006E147F0439F7A0960FB6F894DEBF0FBE61
:10196000CDBFCF91DF911F910F91FF90EF90DF904E
:10197000CF90BF90AF909F908F907F906F905F902F
:101980004F903F902F900895DC012115310541F4CF
:10199000ED91FC910190F081E02D642F099508955F
:1019A0000E942A0C0895EF92FF920F931F93CF93FA
:1019B000DF93EC017A018B012115310541F4E881B7
:1019C000F9810190F081E02D642F09951BC02A3028
:1019D0003105B1F477FF10C04DE250E060E070E0F7
:1019E00020E030E00E94D30C10950095F094E09434
:1019F000E11CF11C011D111DCE01B801A7012AE057
:101A00000E942A0CDF91CF911F910F91FF90EF90D0
:101A100008950F931F938C014DE050E060E070E05B
:101A200020E030E00E94D30CC8014AE050E060E0C2
:101A300070E020E030E00E94D30C1F910F910895D8
:101A40000F931F938C010E94220CC8010E94090D64
:101A50001F910F9108959F92AF92BF92CF92DF9204
:101A6000EF92FF920F931F93CF93DF93EC017A01D4
:101A70008B01922ECB01BA0120E030E040E050E033
:101A80000E94690488236CF4CE014DE250E060E0CE
:101A900070E020E030E00E94D30C17FB109517F99E
:101AA000109520E030E040E05FE3AA240BC0CA01BB
:101AB000B90120E030E040E251E40E945D039B0167
:101AC000AC01A394A91498F3C801B7010E9436028F
:101AD0005B016C010E948D007B018C01CE01B8017D
:101AE000A7012AE030E00E94C40C992029F0CE0121
:101AF0006AE271E00E94220CC801B7010E944B0506
:101B00009B01AC01C601B5010E94050222C020E084
:101B100030E040E251E40E9463027B018C010E94AC
:101B2000F7045B016C01CC24B7FCC094DC2CCE0123
:101B3000B601A5012AE030E00E94D30CC601B50130
:101B40000E9499049B01AC01C801B7010E940502E3
:101B50009A949920E1F6DF91CF911F910F91FF9018
:101B6000EF90DF90CF90BF90AF909F9008950E942C
:101B70002B0D0895813041F0813018F08230D1F47E
:101B800009C010926E00089580916F008D7F809340
:101B90006F000895809170008D7F8093700081E0C8
:101BA0008093B0008091B100887F84608093B10001
:101BB0001092B30008951F93182F80913D02811752
:101BC00011F09FEF06C0E2ECF0E094918FEF80936C
:101BD0003D02892F0E94BA0D812F60E00E94790A90
:101BE0001F9108951F920F920FB60F9211242F93F9
:101BF0003F934F935F936F937F938F939F93AF9395
:101C0000BF93EF93FF938091080390910903A091F4
:101C10000A03B0910B030097A105B10551F1E091C2
:101C20000C03F0910D03808190910E03892780832E
:101C30008091080390910903A0910A03B0910B03CE
:101C4000181619061A061B06C4F480910803909111
:101C50000903A0910A03B0910B030197A109B109EF
:101C60008093080390930903A0930A03B0930B0396
:101C700004C080913D020E94DB0DFF91EF91BF9166
:101C8000AF919F918F917F916F915F914F913F9114
:101C90002F910F900FBE0F901F901895A1E21A2E52
:101CA000AA1BBB1BFD010DC0AA1FBB1FEE1FFF1F00
:101CB000A217B307E407F50720F0A21BB30BE40B50
:101CC000F50B661F771F881F991F1A9469F7609597
:101CD0007095809590959B01AC01BD01CF01089551
:101CE00097FB092E05260ED057FD04D0D7DF0AD06A
:101CF000001C38F450954095309521953F4F4F4F3B
:101D00005F4F0895F6F790958095709561957F4F98
:101D10008F4F9F4F08952F923F924F925F926F92F5
:101D20007F928F929F92AF92BF92CF92DF92EF926B
:101D3000FF920F931F93CF93DF93CDB7DEB7CA1BEC
:101D4000DB0B0FB6F894DEBF0FBECDBF09942A8817
:101D5000398848885F846E847D848C849B84AA84BF
:101D6000B984C884DF80EE80FD800C811B81AA814C
:101D7000B981CE0FD11D0FB6F894DEBF0FBECDBF17
:101D8000ED010895EE0FFF1F0590F491E02D0994E9
:041D9000F894FFCFF5
:101D94002F00203D3E204D656469613A20002043B8
:101DA400656C7369757320200020284D61782000CC
:101DB4002C204D696E20002900002E000000000038
:101DC40000000000000102020303030304040404EE
:101DD40004040404050505050505050505050505B3
:101DE4000505050506060606060606060606060693
:101DF400060606060606060606060606060606067F
:101E04000606060607070707070707070707070762
:101E1400070707070707070707070707070707074E
:101E2400070707070707070707070707070707073E
:101E3400070707070707070707070707070707072E
:101E44000707070708080808080808080808080812
:101E540008080808080808080808080808080808FE
:101E640008080808080808080808080808080808EE
:101E740008080808080808080808080808080808DE
:101E840008080808080808080808080808080808CE
:101E940008080808080808080808080808080808BE
:101EA40008080808080808080808080808080808AE
:101EB400080808080808080808080808080808089E
:101EC400080808080000C8C20000C84201FF00005A
:101ED4000000970BEB0B030C3C0B670B4D0B8B0BB0
:00000001FF
